:020000040800F2
:10000000480A0020F91A0008390400083B040008D7
:100010003F040008430400084704000800000000F3
:100020000000000000000000000000004B04000879
:100030004D040008000000004F04000851040008AF
:10004000131B0008131B0008131B0008131B0008D8
:10005000131B0008131B0008131B0008131B0008C8
:10006000131B0008131B0008131B0008131B0008B8
:10007000131B0008131B0008131B0008131B0008A8
:10008000131B0008131B0008131B0008131B000898
:10009000131B0008131B0008131B0008131B000888
:1000A000131B0008131B0008131B0008131B000878
:1000B000131B0008131B0008131B0008131B000868
:1000C000131B0008131B0008131B0008131B000858
:1000D000131B00086D1A0008131B0008131B0008EF
:1000E000131B0008131B0008131B0008131B000838
:1000F000131B0008131B0008131B0008131B000828
:10010000131B0008131B0008131B0008131B000817
:10011000131B0008131B0008131B0008131B000807
:10012000131B0008131B0008131B0008131B0008F7
:1001300000F002F800F05AF80AA090E8000C82449F
:100140008344AAF10107DA4501D100F04FF8AFF27C
:10015000090EBAE80F0013F0010F18BFFB1A43F0A5
:10016000010318476C4300008C4300000A444FF021
:10017000000C10F8013B13F0070408BF10F8014B06
:100180001D1108BF10F8015B641E05D010F8016B4B
:10019000641E01F8016BF9D113F0080F1EBF10F8AF
:1001A000014BAD1C0C1B09D16D1E58BF01F801CBD2
:1001B000FAD505E014F8016B01F8016B6D1EF9D555
:1001C0009142D6D37047000000230024002500266A
:1001D000103A28BF78C1FBD8520728BF30C148BFAA
:1001E0000B6070471FB51FBD10B510BD02F099FA26
:1001F0001146FFF7F7FF00F0CCF802F0B7FA03B4AE
:10020000FFF7F2FF03BC01F0D7FB000070B54FF61B
:10021000FF70724908604FF478407149086000220D
:1002200011460A2001F030F9012200212D2001F0B1
:100230002BF96CA223210A2001F02BFB6EA237219F
:100240000A2001F026FB0323F0223721462001F08B
:10025000BEFA6BA237216E2001F01BFB03234FF483
:10026000A0723721A02001F0B2FA0A244B2566A221
:100270002946204601F00DFB283405236348294612
:100280000268204601F0A3FA3C3461A229462046C8
:1002900001F0FFFA283405235E482946026820460B
:1002A00001F095FA0A245F255BA22946204601F059
:1002B000F0FA283405235A4829460268204601F0FE
:1002C00086FA3C3457A22946204601F0E2FA283447
:1002D0000523564829460268204601F078FA70BD89
:1002E00010B500F0C6F978B94FF6FF7001F0B4F818
:1002F0004FF6FF70394908604FF47840384908607C
:1003000000F06DFE012010BD0020FCE72DE9F0415A
:100310004FF6FF7001F0A0F8FFF778FF032631E0F9
:1003200000252CE006EB8607FF0007F1270305EB0D
:100330008507FF0007F1270206EB8607F90005EBAA
:100340008507F80000F039FF002414E0FFF7C8FF2C
:1003500020B1012036490870BDE8F081012101EB90
:100360004401344A505C00F0DCFE324911F81400BC
:1003700000F0D7FE641CB4F5C86FE7DB6D1C062DDA
:10038000D0DB761C082ECBDB00202949087000BF8B
:10039000E2E701F0A3FA01F009FB00F049F900F0EF
:1003A0006CF900F037FF4FF6FF7001F055F80020B0
:1003B0000A4908604FF6FF7009490860FFF7A6FF79
:1003C000FFF78EFF09E0FFF78BFF08B1FFF79EFFF5
:1003D0001748007808B1FFF799FFF4E7F80200200A
:1003E000FC020020322E3420544654205350492021
:1003F0003234302A333230004C43445F573A0000E5
:100400004C43445F483A000056583A001800002018
:1004100056793A001C0000204348583A000000007A
:10042000200000204348593A00000000240000202A
:10043000000000205E320008704700BFFEE700BFEA
:10044000FEE700BFFEE700BFFEE77047704770475A
:10045000704700000CB50020019000906B480068C8
:1004600040F480306949086000BF6848006800F4C3
:10047000003000900198401C0190009818B9019834
:10048000B0F5A06FF1D16148006810F4003F02D0D0
:100490000120009001E0002000900098012842D146
:1004A0005B48006840F01000594908600846006841
:1004B00020F0030008600846006840F00200086071
:1004C00052484068514948600846406848600846BC
:1004D000406840F4806048600846406820F47C1022
:1004E00048600846406840F4E810486008460068E4
:1004F00040F08070086000BF4448006810F0007F42
:10050000FAD04248406820F003004049486008465D
:10051000406840F00200486000BF3C48406800F07E
:100520000C000828F9D10CBD10B5FFF793FF10BDE2
:1005300010B53648006840F00100344908600846AC
:1005400040683449084031494860084600683249EB
:1005500008402E4908600846006820F480200860A2
:100560000846406820F4FE0048604FF41F00886091
:10057000FFF7DAFF4FF000602849086010BD10B5A2
:10058000002100200022214B5B6803F00C0121B107
:10059000042906D0082928D107E0214B214C2360EB
:1005A00027E01F4B1F4C236023E0184B5B6803F4CC
:1005B0007010164B5B6803F48032022303EB90400B
:1005C00022B9194B4343174C23600DE00F4B5B6876
:1005D00013F4003F04D0144B4343124C236003E058
:1005E0000F4B43430F4C236003E00D4B0D4C236036
:1005F00000BF00BF054B5B68C3F303130B4CE15C0A
:10060000084B1B68CB40074C236010BD0010024014
:10061000002002400000FFF8FFFFF6FE08ED00E0BA
:1006200000127A000400002000093D0008000020AC
:1006300008B50121102001F003FE0120ADF80000F3
:1006400003208DF8020010208DF803006946FA4857
:1006500001F040FB40F20440ADF8000003208DF8AB
:10066000020048208DF803006946F34801F032FB90
:1006700008BDF2480068C0B2704710B50120F049CB
:1006800008604FF04001EF4801F0CFFB8021ED48BA
:1006900001F0CBFB4021EB4801F0C7FB10BD70B56A
:1006A000044600254021E74801F0C1FB00BF17E0E8
:1006B0004021E44801F0BBFB14F0800F04D08021FE
:1006C000E04801F0B2FB03E08021DE4801F0AFFB1F
:1006D0004021DC4801F0A9FB6006040E681CC5B28D
:1006E000082DE5DB70BD70B50025002400BF0FE0CC
:1006F00064004021D34801F098FB4021D14801F02B
:1007000096FBD148006808B144F00104681CC5B2EA
:100710000C2DEDDB204670BD70B504460020C849A5
:1007200008602046FFF7BBFF4021C64801F07DFB73
:100730004021C44801F07BFBFFF7D5FF05460120AF
:10074000C249C1F88001284670BD2DE9F04190B042
:1007500080460027002406E04046FFF7DDFF01A9A0
:1007600041F82400641C0F2CF6D3002418E0651C0B
:1007700013E001A850F8240001A951F8251088427F
:100780000AD901A850F8246050F8250001A941F8C1
:10079000240001A840F825606D1C0F2DE9D3641CCE
:1007A0000E2CE4D30027052404E001A850F824000F
:1007B0000744641C0A2CF8D30520B7FBF0F630463A
:1007C00010B0BDE8F0812DE9F04104460D46D0207F
:1007D000FFF7BBFF06469020FFF7B7FF0746642EE2
:1007E00001D3642F02D20020BDE8F08126602F6083
:1007F0000120F9E77FB504460D4602A903A8FFF7DB
:10080000E2FF064616B9002004B070BD694601A893
:10081000FFF7D9FF06460EB90020F5E703990198C6
:10082000884204D8019814300399814208D3019971
:100830000398884222D803981430019981421DD22E
:1008400002990098884204D8009814300299814295
:1008500008D300990298884210D802981430009961
:1008600081420BD201990398084440082060009906
:1008700002980844400828600120C5E70020C3E72B
:100880001CB500241DE000BF7149081FFFF7B2FF2F
:100890000028F9D00A2001F05DF800BF694601A8E0
:1008A000FFF7A8FF0028F9D06948001F00680199E8
:1008B000884206D16648001F40680099884200D1EE
:1008C0000124002CDFD020461CBD70B504460D4627
:1008D000A4F10C002B4604F10D02294600F048FE5D
:1008E000A5F10C0105F10D032246204600F040FE63
:1008F000691C601C00F002FE601E691C00F0FEFD19
:10090000691E601C00F0FAFD691E601E00F0F6FD15
:1009100070BD10B500244E49081FFFF76BFF00287B
:1009200048D001244A48001F00684A4909688842A3
:100930000DD94748001F006846490968401A4FF41E
:100940007A71484344490968B0FBF1F00CE0404833
:10095000001F00683F490968081A4FF47A7148433C
:100960003D490968B0FBF1F03C4908603848001F78
:1009700040683B49096888420DD93548001F4068E6
:1009800037490968401A4FF47A7148433549096874
:10099000B0FBF1F00CE02E48001F406830490968B8
:1009A000081A4FF47A7148432E490968B0FBF1F0F8
:1009B0002A494860204610BD2DE9F04F8FB04FF016
:1009C000000900BF1F20284908604FF6FF70274923
:1009D000086000F041FD4FF47840234908604FF66D
:1009E000FF7000F039FD32210846FFF76EFFF5E297
:1009F0001248006800287DD1FFF742FF78B1144803
:100A0000001F006804A941F839001148001F406820
:100A100001EBC901486009F1010000F0FF09B9F1DB
:100A2000010F25D0B9F1020F32D0B9F1030F3FD039
:100A3000B9F1040F2BD14BE00010014028012242F4
:100A4000800122420014014008012242000022429B
:100A50002C00002020000020180000203000002082
:100A6000240000201C000020FC020020F8020020CE
:100A70004FF6FF7000F0F0FC00BFFE480068002851
:100A8000FBD04FF032014FF0BD00FFF71EFFA3E295
:100A90004FF6FF7000F0E0FC00BFF6480068002849
:100AA000FBD040F20D114FF03200FFF70EFF93E242
:100AB0004FF6FF7000F0D0FC00BFEE480068002841
:100AC000FBD040F20D114FF0BD00FFF7FEFE83E2B8
:100AD0004FF6FF7000F0C0FC00BFE6480068002839
:100AE000FBD00499069888420CD906990498081AF4
:100AF000401C00E071E24FF47A7148438C21B0FB56
:100B0000F1F009E006990498401A401E4FF47A71FA
:100B100048438C21B0FBF1F0039002F0E5F98246E6
:100B200004990698884210D9D349504602F024FA15
:100B3000D249009002F0F6F80290049802F0D4F93D
:100B40000190029902F016FB0FE0CB49504602F0EB
:100B500013FACA49009002F0E5F80290049802F0F6
:100B6000C3F90190029902F06FF8039002F09CF92A
:100B700006460599099888420AD905990998401AA4
:100B8000401E4FF47A714843DC21B0FBF1F009E0DC
:100B900005990998081A401E4FF47A714843DC21E0
:100BA000B0FBF1F0039002F09FF90E9005990998BF
:100BB000884210D9B0490E9802F0DEF9AF49009092
:100BC00002F0B0F80290059802F08EF901900299B7
:100BD00002F0D0FA0FE0A8490E9802F0CDF9A7492B
:100BE000009002F09FF80290059802F07DF90190C4
:100BF000029902F029F8039002F056F9804608990C
:100C00000A9888420AD908990A98401A401C4FF459
:100C10007A7148438C21B0FBF1F009E00A990898F9
:100C2000401A401E4FF47A7148438C21B0FBF1F01A
:100C3000039002F059F9834608990A98884210D91E
:100C40008D49584602F098F98C49009002F06AF8F4
:100C50000290089802F048F90190029902F08AFA8D
:100C60000FE08549584602F087F98449009002F068
:100C700059F80290089802F037F90190029901F0B2
:100C8000E3FF039002F010F907460B9907988142A1
:100C90000AD90B990798081A401E4FF47A714843F5
:100CA000DC21B0FBF1F009E007990B98081A401E0F
:100CB0004FF47A714843DC21B0FBF1F0039002F06D
:100CC00013F90D900B990798814210D96A490D9834
:100CD00002F052F96949009002F024F80290079856
:100CE00002F002F90190029902F044FA0FE0624921
:100CF0000D9802F041F96149009002F013F802905A
:100D0000079802F0F1F80190029901F09DFF03901D
:100D100002F0CAF80C905946504602F0F9F908D290
:100D20005649584601F090FF5146039002F0F0F802
:100D300029D35946504602F0EBF808D24F4958469D
:100D400002F018FA5146039002F0E2F91BD3DDE9F4
:100D50000D1002F0DDF908D248490D9801F074FF3A
:100D600003900E9902F0D4F80DD3DDE90D1002F0D6
:100D7000CFF813D241490D9802F0FCF903900E9977
:100D800002F0C6F90AD24FF000094FF6FF7000F0EA
:100D900063FB32210846FFF798FD1FE15946504694
:100DA00001F052FF4FF08041029001F0BBFF039031
:100DB00002F07AF832490860DDE90D1001F044FFD5
:100DC0004FF08041029001F0ADFF039002F06CF80B
:100DD0002C490860F01940082B4908600C984044E1
:100DE00040082A4908604FF6FF7000F035FB0020EC
:100DF000274908601F20274908600024322526A2C1
:100E00002946204600F045FD2834504602F04CF8B3
:100E10000523024629460390204600F0D8FC002412
:100E200014351FA22946204600F033FD28340E98C1
:100E300002F03AF80523024629460390204600F0C6
:100E4000C6FC0024143518A22946204600F021FDD6
:100E50002834052332462946204600F0B8FC0024F9
:100E6000143513A22946204600F013FD283405232B
:100E7000424621E0280122420000484200007A4414
:100E8000180000201C00002020000020240000206A
:100E9000FC020020F80200205658313A0000000001
:100EA0005679313A00000000434858313A000000BA
:100EB000434859313A0000002946204600F087FC9B
:100EC0006424322564A22946204600F0E2FC28343E
:100ED000584601F0E9FF05230246294603902046C3
:100EE00000F075FC642414355DA22946204600F00C
:100EF000D0FC28340D9801F0D7FF0523024629467F
:100F00000390204600F063FC6424143556A2294661
:100F1000204600F0BEFC283405233A4629462046E8
:100F200000F055FC6424143551A22946204600F0F7
:100F3000B0FC28340523294620460C9A00F047FCD3
:100F4000322496254CA22946204600F0A2FC2834E3
:100F500005234A4829460268204600F038FC32241E
:100F6000143547A22946204600F093FC2834052377
:100F7000444829460268204600F029FC32241435F2
:100F800041A22946204600F084FC2834052340482D
:100F900029460268204600F01AFC322414353DA28E
:100FA0002946204600F075FC283405233B48294695
:100FB0000268204600F00BFC1E241E3538A229468C
:100FC000204600F066FCFFF75BFC4FF6FF7000F078
:100FD00043FA0FB0BDE8F08F00BF00BF08E570B561
:100FE00000210C460D4635E03748006810BB002450
:100FF0002546FFF78EFC68B334A2FA210A2000F0E0
:1010000048FC33480423FA2102681E2000F0DFFB6D
:1010100030A2FA21B42000F03CFC2D480423FA2130
:101020004268C82000F0D3FB2B4A5168106800F0DA
:1010300092FA0FE00022294B2046294601F0A0FB3E
:1010400004460D460022264B2046294601F0DCFCD2
:1010500000D270BDC8E700005658323A00000000C8
:101060005679323A00000000434858323A000000F6
:10107000434859323A00000056583A001800002000
:1010800056793A001C0000204348583A00000000FE
:10109000200000204348593A0000000024000020AE
:1010A00041646A757374204F4B212020546F75631F
:1010B0006820416E79776865726520546F20436FB0
:1010C0006E74696E7565000028012242583A00006E
:1010D00028000020593A0000300000200000F03FB6
:1010E00000BDEF4070B50446002517E04021FE48E2
:1010F00000F09DFE14F0800F04D08021FA4800F02B
:1011000094FE03E08021F84800F091FE4021F6486B
:1011100000F08BFE6006040E681CC5B2082DE5DBEE
:1011200070BD10B504460821EF4800F080FE202174
:10113000ED4800F07AFE2046FFF7D4FF0821EA4888
:1011400000F073FE10BD10B504460821E64800F01B
:101150006EFE2021E44800F068FEC4F30720FFF78C
:10116000C1FFE0B2FFF7BEFF0821DF4800F05DFEDF
:1011700010BD10B504460821DB4800F058FE2021C0
:10118000D94800F054FE2046FFF7ACFF0821D648AE
:1011900000F04BFE10BD70B504460D460821D24844
:1011A00000F045FEE0B2FFF7E4FF2846FFF7CBFF73
:1011B0000821CD4800F039FE70BD2DE9F04104460C
:1011C0000D4616461F462A20FFF7D3FFC4F307201B
:1011D000FFF7A7FFE0B2FFF7A4FFC6F30720FFF772
:1011E000A0FFF0B2FFF79DFF2B20FFF7C2FFC5F372
:1011F0000720FFF796FFE8B2FFF793FFC7F307203A
:10120000FFF78FFFF8B2FFF78CFF2C20FFF7B1FF3D
:10121000BDE8F08108B501214FF4947001F010F899
:101220004FF4FC70ADF8000010208DF8030003208F
:101230008DF802006946AC4800F04CFD4FF4FC719B
:10124000A94800F0F2FD0821A74800F0F0FD1021A8
:10125000A54800F0ECFD142000F07CFB1021A24812
:1012600000F0E3FD142000F075FBCF20FFF781FFB5
:101270000020FFF756FFD920FFF753FF3020FFF77C
:1012800050FFED20FFF775FF6420FFF74AFF0320B2
:10129000FFF747FF1220FFF744FF8120FFF741FFD0
:1012A000E820FFF766FF8520FFF73BFF1020FFF7E0
:1012B00038FF7820FFF735FFCB20FFF75AFF3920A2
:1012C000FFF72FFF2C20FFF72CFF0020FFF729FF4F
:1012D0003420FFF726FF0220FFF723FFF720FFF758
:1012E00048FF2020FFF71DFFEA20FFF742FF002004
:1012F000FFF717FF0020FFF714FFC020FFF739FFAB
:101300002120FFF70EFFC120FFF733FF1220FFF768
:1013100008FFC520FFF72DFF3220FFF702FF3C201A
:10132000FFF7FFFEC720FFF724FFC120FFF7F9FEFC
:101330003620FFF71EFF0820FFF7F3FE3A20FFF7E5
:1013400018FF5520FFF7EDFEB120FFF712FF002038
:10135000FFF7E7FE1820FFF7E4FEB620FFF709FFCE
:101360000A20FFF7DEFEA220FFF7DBFEF220FFF7E8
:1013700000FF0020FFF7D5FE2620FFF7FAFE012030
:10138000FFF7CFFEE020FFF7F4FE0F20FFF7C9FEC6
:101390002020FFF7C6FE1E20FFF7C3FE0920FFF73F
:1013A000C0FE1220FFF7BDFE0B20FFF7BAFE502053
:1013B000FFF7B7FEBA20FFF7B4FE4420FFF7B1FEF7
:1013C0000920FFF7AEFE1420FFF7ABFE0520FFF764
:1013D000A8FE2320FFF7A5FE2120FFF7A2FE002094
:1013E000FFF79FFEE120FFF7C4FE0020FFF799FE04
:1013F0001920FFF796FE1920FFF793FE0020FFF754
:1014000090FE1220FFF78DFE0720FFF78AFE2D20A9
:10141000FFF787FE2820FFF784FE3F20FFF781FEBD
:101420000220FFF77EFE0A20FFF77BFE0820FFF771
:1014300078FE2520FFF775FE2D20FFF772FE0F20A6
:10144000FFF76FFE1120FFF794FE782000F082FA7C
:101450002920FFF78EFE08BD70B5064640F23F1307
:10146000EF2200210846FFF7A8FE002409E000252E
:1014700003E03046FFF767FE6D1CB5F5A07FF8D39B
:10148000641CF02CF3D370BD2DE9F0470746884665
:101490001446164E08F11F0307F11F024146384655
:1014A000FFF78BFE06EBC4164FF0000918E000258D
:1014B0000FE030780121A940084204D00C480068B0
:1014C000FFF741FE03E00B480068FFF73CFE681C95
:1014D000C5B2082DEDDB761C09F1010000F0FF0913
:1014E000B9F1800FE3DB07E0001401403800002071
:1014F000FC020020F8020020BDE8F08770B5044629
:101500000D462B46224629462046FFF756FEF04858
:101510000068FFF718FE70BD2DE9F04704460D4640
:1015200016461F46DDF820A03B4632462946204697
:10153000FFF743FEA8460AE0A14604E05046FFF745
:1015400002FE09F10109B145F8D908F10108B845D1
:10155000F2D9BDE8F08738B504460D46DC4800688E
:10156000691E0090601E6B1C621CFFF7D5FF38BD22
:101570002DE9FF4F85B081468A46002004900390F4
:101580000798A0EB09050898A0EB0A06CDF808908B
:10159000CDF804A0002D01DD012705E00DB90027DD
:1015A00002E04FF0FF376D42002E02DD4FF00108E0
:1015B00006E016B94FF0000802E04FF0FF3876421F
:1015C000B54201DD2C4600E034464FF0000B1DE033
:1015D000DDE90110FFF792FF049828440490039876
:1015E000304403900498A04205DD0498001B049049
:1015F0000298384402900398A04205DD0398001B2E
:1016000003900198404401900BF1010B601C83454D
:10161000DED909B0BDE8F08F2DE9F04104460D4652
:1016200016461F462B46324629462046FFF7A0FFA6
:101630003B46224629462046FFF79AFF3B46324664
:1016400039462046FFF794FF3B463246294630464E
:10165000FFF78EFFBDE8F0812DE9F04706460F4603
:101660009046002445460320A0EB480934E0391B8E
:10167000701BFFF743FF391B7019FFF73FFF791904
:10168000301BFFF73BFF391B701BFFF737FF791B40
:10169000301BFFF733FF39197019FFF72FFF791B44
:1016A0003019FFF72BFF79193019FFF727FF391988
:1016B000701BFFF723FF641CB9F1000F03DAA000D1
:1016C000801D814404E0601B80000A3081446D1E4F
:1016D00079193019FFF712FFAC42C8DDBDE8F08779
:1016E0002DE9F84F05460F4616469A46AB46784810
:1016F00000680090E02D02D8B7F5987F01D9BDE8C9
:10170000F88FA6F12000C6B207F10F03EA1D394693
:101710002846FFF752FDBAF1000F29D1002424E03A
:1017200004EB06106B4911F800904FF0000815E02B
:1017300019F0010F03D066490098086003E066487D
:1017400000686349086062480068FFF7FCFC4FEAE4
:1017500069096D1C08F1010000F0FF08B8F1080FDD
:10176000E6DB5D467F1C601CC4B2102CD8DB1EE09B
:1017700000241AE004EB0610564911F800904FF0CF
:1017800000080DE019F0010F04D0391905EB08002D
:10179000FFF7B4FE4FEA690908F1010000F0FF0805
:1017A000B8F1080FEEDB601CC4B2102CE2DB484934
:1017B0000098086000BFA2E710B50246012000E0D3
:1017C00050430B00A1F10104E1B2F9D110BD2DE9A4
:1017D000F0470646894617461D464FF0000A00BFEF
:1017E00000242DE0281B401EC1B20A20FFF7E4FFB1
:1017F000B7FBF0F00A21B0FBF1F201FB1208BAF1DD
:10180000000F10D1681EA0420DDDB8F1000F08D105
:10181000082101FB0460002320224946FFF760FFF6
:101820000CE04FF0010A08F13001CAB2082101FBB7
:10183000046000234946FFF753FF00BF601CC4B299
:10184000AC42CFDBBDE8F0872DE9F047064689467C
:1018500017461D46002418E0281B401EC1B20A206E
:10186000FFF7AAFFB7FBF0F00A21B0FBF1F201FB92
:10187000120808F13001CAB2082101FB04600023FC
:101880004946FFF72DFF601CC4B2AC42E4DBBDE863
:10189000F08770B505460E46144615E0E02D01D9D7
:1018A00000251036B6F5987F06D900200546064675
:1018B0004FF47840FFF7D0FD2278002331462846C8
:1018C000FFF70EFF0835641C20780028E6D170BDB4
:1018D000FC020020DE3E0008F802002010B56FF088
:1018E000040000F079F92D4800682D49B0FBF1F0B3
:1018F0002C4908700846007800EB4001C1EBC0108D
:101900004FF6FF7101EAC0002749088010BD01466B
:10191000244A12784A434FF0E0235A6100229A6128
:101920001A46126942F001021A6100BF4FF0E0222C
:10193000106910F0010F02D010F4803FF6D04FF084
:10194000E022126922F001024FF0E0231A61002226
:101950009A6170470146144A12884A434FF0E023C7
:101960005A6100229A611A46126942F001021A6114
:1019700000BF4FF0E022106910F0010F02D010F408
:10198000803FF6D04FF0E022126922F001024FF0C2
:10199000E0231A6100229A617047000004000020D1
:1019A00000127A00000300200203002010B54FF45B
:1019B000A06000F0C1F810BD014600BF704700BF35
:1019C000494A128812F0400FFAD0C2B2464B1B1D92
:1019D0001A80704710B586B00446012144F2050014
:1019E00000F02EFC4FF40070ADF8140003208DF8C9
:1019F000160018208DF8170005A93C4800F06AF978
:101A00004FF48060ADF8140004208DF8170005A98C
:101A1000364800F05FF925208DF8000003208DF88E
:101A200001008DF8020001208DF80300684600F0E7
:101A300088F801940020ADF80800ADF80A00ADF870
:101A40000C00ADF810000C20ADF80E0001A92648DE
:101A500000F0A1FC012240F22551234800F033FDA3
:101A60000121214800F023FD06B010BD10B540F261
:101A700025511D4800F00CFE10B31B4800F088FDF6
:101A8000C4B21B48008810F4004F2BD118480088BE
:101A900010F4804F0CD00A2C03D000201449088089
:101AA00020E01348008840F400401149088019E004
:101AB0000D2C06D10E48008840F480400C49088067
:101AC00010E00B480088C0F30D000A490C54084888
:101AD0000088401C0649088008460088C72801DDA8
:101AE0000020088010BD00000038014000080140BF
:101AF00004030020200300200948804709480047CC
:101B0000FEE7FEE7FEE7FEE7FEE7FEE7FEE7FEE7AD
:101B1000FEE7FEE704480549054A064B704700000A
:101B2000310500083101000848040020480A00205F
:101B3000480600204806002031490143314A11601F
:101B4000704770B5002100230F22C4780CB32D4CD0
:101B5000246804F4E064C4F5E064210AC1F10403DC
:101B6000CA40447804FA03F18478144021430901FF
:101B7000254C0678A155047804F01F050124AC40DB
:101B800005786D114FF0E02606EB8505C5F800419C
:101B900009E0047804F01F050124AC401B4D0678D1
:101BA000761145F8264070BD194A0A400243154B8C
:101BB0001B1F1A60704739B1124A121D1268024386
:101BC000104B1B1D1A6006E00E4A121D126882435C
:101BD0000C4B1B1D1A607047042808D14FF0E02100
:101BE000096941F004014FF0E022116107E04FF074
:101BF000E021096921F004014FF0E02211617047F2
:101C00000000FA050CED00E000E400E080E100E0F7
:101C100080FFFF1F10B50446CA48844208D1012145
:101C2000042000F027FB0021042000F023FB46E005
:101C3000C548844208D10121082000F01BFB002187
:101C4000082000F017FB3AE0C048844208D1012187
:101C5000102000F00FFB0021102000F00BFB2EE005
:101C6000BB48844208D10121202000F003FB002161
:101C7000202000F0FFFA22E0B648844208D101217A
:101C8000402000F0F7FA0021402000F0F3FA16E0BF
:101C9000B148844208D10121802000F0EBFA0021F4
:101CA000802000F0E7FA0AE0AC48844207D1012125
:101CB000801500F0DFFA0021A01500F0DBFA10BD5E
:101CC00010B50121084600F0D5FA0021012000F0EE
:101CD000D1FA10BD2DE9F041024600250026002072
:101CE00000230024002791F803C00CF00F0591F8A1
:101CF00003C01CF0100F03D091F802C04CEA050598
:101D000091F800C0BCF1000F31D0146800202BE026
:101D10004FF0010C0CFA00F3B1F800C00CEA030616
:101D20009E4220D183004FF00F0C0CFA03F7BC4306
:101D300005FA03FC4CEA040491F803C0BCF1280F37
:101D400006D14FF0010C0CFA00FCC2F814C00AE0F6
:101D500091F803C0BCF1480F05D14FF0010C0CFA0B
:101D600000FCC2F810C0401C0828D1D31460B1F8A0
:101D700000C0BCF1FF0F34DD546800202EE000F1FC
:101D8000080C4FF0010808FA0CF3B1F800C00CEA97
:101D900003069E4221D183004FF00F0C0CFA03F78B
:101DA000BC4305FA03FC4CEA040491F803C0BCF1FF
:101DB000280F05D100F1080C08FA0CF8C2F81480BD
:101DC00091F803C0BCF1480F07D100F1080C4FF0A7
:101DD000010808FA0CF8C2F81080401C0828CED37D
:101DE0005460BDE8F0814FF6FF71018002218170DF
:101DF0000421C17070470246002093680B4201D055
:101E0000012000E0002070470146886880B27047DA
:101E100002460020D3680B4201D0012000E00020E0
:101E200070470146C86880B27047016170474161E0
:101E300070470AB1016100E041617047C1607047BD
:101E40004FF480320A4382618161826182698269D2
:101E5000704702460020424B18684FF680731840C6
:101E600040EA021008433E4B186070473D49C86184
:101E70007047F0B50A46002300240021002500F039
:101E80000046B6F1004F02D1354EF16901E0344E03
:101E90007168C0F3034583B200F44016B6F5401FE5
:101EA00008D121F070612E4E766826F070662C4FB6
:101EB0007E6012E000F48016B6F5801F06D103267E
:101EC00006FA05F4A14341F0706106E0460D3601C3
:101ED00003FA06F6B14341F0706122B1460D3601B6
:101EE00003FA06F6314300F00046B6F1004F02D186
:101EF0001B4EF16101E01A4E7160F0BD30B5002259
:101F00008B071C0F0F2303FA04F2154B08338C10B8
:101F100053F824309343124C08348D1044F8253084
:101F200023468C1053F824308C07240F00FA04F455
:101F300023430B4C08348D1044F8253030BD0A493A
:101F40000860704700080140000C0140001001408B
:101F50000014014000180140001C01400020014015
:101F60000000014000002042DC002042DD48006803
:101F700040F00100DB49086008464068DA49084043
:101F8000D849486008460068D8490840D5490860E3
:101F90000846006820F4802008600846406820F465
:101FA000FE0048604FF41F0088607047CD49096803
:101FB00021F48031CB4A11601146096821F4802157
:101FC0001160B0F5803F03D0B0F5802F0ED106E050
:101FD000C449096841F48031C24A116007E0C1492F
:101FE000096841F4A021BF4A116000E000BF00BFB2
:101FF000704710B501460022002300204A11012A33
:1020000002D1B84C236806E0022A02D1B54C236AFB
:1020100001E0B44C636A01F01F02012494401C42A9
:1020200001D0012000E0002010BD38B50020009054
:102030000024002500BF3120FFF7DBFF0546009894
:10204000401C00900098B0F5A06F01D0002DF2D098
:102050003120FFF7CEFF08B1012400E00024204624
:1020600038BD014600209F4A106820F0F80040EA81
:10207000C100106070479E4908607047024600200A
:10208000984B586820F47C1042EA01031843954BA2
:102090005860704796490866704701460020914A8B
:1020A000506820F003000843506070478D48406836
:1020B00000F00C007047014600208A4A506820F06A
:1020C000F00008435060704701460020854A506880
:1020D00020F4E06008435060704701460020814AC8
:1020E000506820F4605040EAC1005060704729B148
:1020F0007C4A527A02437B4B5A7204E0794A527A04
:102100008243784B5A7270477A490860704701469B
:102110000020744A506820F44040084350607047E3
:102120000021754A11706F4A82F82010012802D0F0
:10213000042808D103E001216F4A117004E0052151
:102140006D4A117000E000BF00BF70476B49086026
:1021500070476449096A0143624A116270476749DE
:1021600044390860704730B5002100220024002364
:102170005C4D6D6805F00C0121B1042905D00829DA
:1021800023D105E05E4D056022E05D4D05601FE056
:10219000544D6D6805F47012524D6D6805F480342D
:1021A000022505EB92421CB9564D554305600BE0E4
:1021B0004C4D6D6815F4003F03D0524D55430560FA
:1021C00002E04F4D5543056002E04D4D056000BFF4
:1021D00000BF444D6D6805F0F00109094A4D6B5C84
:1021E0000568DD4045603F4D6D6805F4E061090A12
:1021F000454D6B5C4568DD4085603A4D6D6805F482
:102200006051C90A404D6B5C4568DD40C560354D85
:102210006D6805F44041890B3C4D6B5CC568B5FBAE
:10222000F3F5056130BD29B12E4A526902432D4BA9
:102230005A6104E02B4A526982432A4B5A61704723
:1022400029B1284A92690243264B9A6104E0254A43
:1022500092698243234B9A61704729B1214AD2691E
:102260000243204BDA6104E01E4AD26982431D4BCF
:10227000DA61704729B11B4AD2680243194BDA6010
:1022800004E0184AD2688243164BDA60704729B1DD
:10229000144A12690243134B1A6104E0114A12698D
:1022A0008243104B1A6170471449403908607047E7
:1022B0000F49C86470470B49C87170470948406AA4
:1022C00040F0807007494862704701460020054A87
:1022D00092680A4201D0012000E0002070470149C5
:1022E00088727047001002400000FFF8FFFFF6FE02
:1022F00000004242D8004242201002408004424284
:1023000000127A0000093D000C0300201C0300208D
:1023100010B50446FB48844209D101218803FFF728
:10232000A9FF00214FF48040FFF7A4FF32E0F648F8
:10233000844209D101214804FFF7A9FF00214FF48D
:102340000030FFF7A4FF25E0F048844209D10121C5
:102350008804FFF79CFF00214FF48020FFF797FFD0
:1023600018E0EB48844209D10121C804FFF78FFF30
:1023700000214FF40020FFF78AFF0BE0E54884427C
:1023800008D101210805FFF782FF00214FF48010DA
:10239000FFF77DFF10BD2DE9F04786B005460E46DC
:1023A0000024A24600BFA1460027B08900B100BFAB
:1023B0002F462C8A4CF6FF700440F08804432C8290
:1023C000AC894EF6F3100440B08831890843718916
:1023D00008430443AC81AC8A4FF6FF400440B08907
:1023E0000443AC8201A8FFF7BEFEC648874202D173
:1023F000DDF810A001E0DDF80CA0A88910F4004F72
:1024000008D00AEBCA0000EB0A1031684900B0FBA3
:10241000F1F807E00AEBCA0000EB0A103168890006
:10242000B0FBF1F86420B8FBF0F00401200964214E
:1024300001FB1089A88910F4004F08D0322000EB6E
:10244000C900B0FBF1F000F00700044308E03220BF
:1024500000EB09106421B0FBF1F000F00F00044321
:102460002C8106B0BDE8F0874FF4165101600021C1
:102470008180C18001810C214181002181817047CF
:1024800010B502460020108A4FF2FF0318400B8857
:102490004C8823438C882343CC88234318431082E1
:1024A00010BD0021018041808180C180704721B131
:1024B000828942F40052828104E082894DF6FF73E2
:1024C0001A4082817047F0B503460024002600259B
:1024D0000020A1F510676A3F00D100BF1846C1F384
:1024E000421401F01F06012707FA06F5012C01D15D
:1024F0000C3004E0022C01D1103000E014301AB18D
:1025000007682F43076002E00768AF430760F0BD2C
:102510001AB1838A0B43838202E0838A8B438382CE
:102520007047028A4FF6F0731A400282028A0A4309
:102530000282704782894FF2FF731A40828182893A
:102540000A438281704721B1828942F0020282816E
:1025500004E082894FF6FD731A4082817047028A37
:102560004FF6DF731A400282028A0A4302827047E2
:1025700021B1028A42F48042028204E0028A4BF6D0
:10258000FF731A4002827047C1F3080282807047CD
:1025900001468888C0F308007047818941F0010135
:1025A00081817047028BD2B20283028B42EA012200
:1025B00002837047028B02F47F420283028B0A433C
:1025C0000283704721B1828A42F02002828204E0B5
:1025D000828A4FF6DF731A408282704721B1828A65
:1025E00042F01002828204E0828A4FF6EF731A40B2
:1025F0008282704721B1828A42F00802828204E01E
:10260000828A4FF6F7731A408282704721B182891D
:1026100042F40042828103E08289C2F30E02828189
:10262000704721B1828A42F40062828204E0828A89
:102630004FF2FF731A4082827047828A4FF6FB7313
:102640001A408282828A0A438282704721B1828A3A
:1026500042F00202828204E0828A4FF6FD731A4041
:102660008282704702460020B1F5007F00D100BF92
:1026700013880B4201D0012000E00020704701F4D4
:102680000072B2F5007F00D100BFCA4302807047DC
:1026900070B502460024002300250020A1F5106635
:1026A0006A3E00D100BFC1F3421501F01F030126AD
:1026B00006FA03F3012D02D19689334006E0022D7C
:1026C00002D1168A334001E0968A33400C1201266B
:1026D00006FA04F41688344013B10CB1012000E06E
:1026E000002070BD10B500220023A1F510646A3CE3
:1026F00000D100BF0A1201249440A3B2DC4304803D
:1027000010BD000000380140004400400048004077
:10271000004C0040005000407047704770477047C1
:102720007047754600F028F8AE46050069465346E6
:1027300020F00700854618B020B5FFF7EBF9BDE89B
:1027400020404FF000064FF000074FF000084FF018
:10275000000B21F00701AC46ACE8C009ACE8C009A9
:10276000ACE8C009ACE8C0098D4670470446AFF339
:1027700000802046FDF743FD00487047E803002035
:1027800010B591EA030F48BF83F0004300F17A814E
:10279000841A71EB030C05D2121943EB0C03001BD6
:1027A00061EB0C01DFF824E14FEA1154A4EB135C58
:1027B0001EEA430F18BF9EEA445F73D023EA0E035C
:1027C000DCF1200E21EA045143F4801332D322FAC3
:1027D0000CFE10EB0E0023FA0CFE41EB0E01CCF1C7
:1027E000200E03FA0EFE10EB0E0051F10001B1F5C0
:1027F000801FCCF1200E32D201EB045112FA0EF2FE
:10280000BDE8104058BF7047401C38BF5FEA420225
:1028100018BF7047002814BF20F0010041F10001EB
:102820004FEA410313F5001F38BF7047A1F1C041C3
:1028300000F0E4B8012A43EB0302ACF1200CDCF118
:102840001F0E32BF4FF0000E23FA0CF310EB030003
:1028500041EB0451B4EB115FD0D0A1EB045101F571
:10286000801149085FEA300001EB04510ED350F1AA
:10287000000038BF12FA0EFE08D1BDE81040C9E7CB
:10288000401C38BF5FEA4202CAD1C3E7BDE810402E
:102890004FEA410313F5001F38BF7047A1F1C04153
:1028A00000F0ACB89EEA445F08D011EA5E0FBDE8C4
:1028B000104004BF01F0004100207047BDE8104007
:1028C00070B500F04DF800BF64FBBE3E0000E0FFB5
:1028D000491058BFC1F140415B1058BFC3F140439C
:1028E0008B42EFF30080704751EA030C17D41CF5BC
:1028F000801F58BFBCF5801F00F10680994218BFA9
:10290000704708BF9042704707D711F5801F58BF26
:1029100013F5801F19D499427047894270471CF5FE
:10292000801F08D5BCF5801FF7D58B4218BF7047B4
:1029300008BF824270474FF4001C1CEB410F38BFA8
:102940001CEB430F01D28B42704770B500F008F8C2
:10295000922449004FF000514FF08053FFF7B8BF69
:102960000EF1020E2EF0030E5EF8046B364205D413
:10297000012A43EB030515F5001F12D8012841EB8E
:10298000010C1CF5001F0CD80ED14FEAD17C15F5B7
:10299000001F0CEB4C0C0CF1020C08BF4CEBD37C71
:1029A00004E04FF0080C01E04FEAD37C0CEB4C053F
:1029B00026FA05F606F00706B6F1040C06D20EEB71
:1029C000860CBDE870404CF0010C6047DFE80CF06D
:1029D000090B02024FF000414FF00000A1F5002169
:1029E00070BD19461046012851EB010418BFD4F5FB
:1029F000001484BF002001F0004170BD0808A0F55C
:102A000000114FEA3101704753EA010C17D41CF54D
:102A1000801F58BFBCF5801F00F106808B4218BF95
:102A2000704708BF8242704707D713F5801F58BF11
:102A300011F5801F19D48B4270479B4270471CF5DB
:102A4000801F08D5BCF5801FF7D5994218BF704785
:102A500008BF904270474FF4001C1CEB430F38BF77
:102A60001CEB410F01D2994270470FB40CBC03BC60
:102A7000FFF76BBF10B591EA030F48BF83F0004327
:102A80003FF586AE841A71EB030C07D212198CF055
:102A9000004C43EB0C03001B61EB0C01DFF8A4E1DD
:102AA0004FEA1154A4EB135C1EEA430F18BF9EEAD1
:102AB000445F00F0B08023EA6E03524221EA0451E1
:102AC000C3EB6E0338BF5B1EDCF1200E25D322FA68
:102AD0000CFE10EB0E0043FA0CFE41EB0E01CCF1A4
:102AE000200E03FA0EFE10EB0E0051F10001CCF1A6
:102AF000200E29D412FA0EF201EB0451BDE8104069
:102B000058BF7047401C1CBFB2F1004F70470028EF
:102B10000CBF491C20F00100704712EB020E43EB82
:102B2000030218BF4FF0010E4EEA4202ACF1200C36
:102B3000DCF11E0E54D943FA0CFE10EB0E0051F1DD
:102B4000FF31CCF11E0ED5D50EF1010E12FA0EFE9C
:102B5000404141EB010101EB445C5FEA5C5C10D950
:102B600010EBDE7001EB045138BFBEF1004FBDE841
:102B7000104018BF704700280CBF491C20F001000E
:102B8000704730D24FEAD42C11F5001124F40064C0
:102B90001BD0B1FA81F20B3AA41AA41ED2F1200381
:102BA000914030FA03F31943904001EBCC71002CB3
:102BB00001EB0451BDE81040A8BF704701F1C041CE
:102BC0004FF0000001F000417047B0FA80F310FAB6
:102BD00003F100D110BDE41A173C4805C90AE4E727
:102BE00001EB045110BD491001EB0451BDE8104048
:102BF0004FEA300002E04FF0000170474A0008BF82
:102C00000042F8D0B2F5001F28BF704701F0004124
:102C10004FF0000070479EEA445F07D011EA5E0F54
:102C2000BDE8104004BF002100207047BDE81040FF
:102C300070B5FFF795FE00BF40DFF63E83F0004120
:102C4000104670470000E0FF90EA010F48BF81F096
:102C5000004100F19682421A3CBF801A89184FEA5F
:102C6000D0524FF07F4C1CEA410FA2EBD15318BF5A
:102C70009CEA026F00F03B804FF0004C4CEA0020D1
:102C80004CEA012121FA03FC10EB0C0C1ED202F1DC
:102C9000FF325FEA1C2040EBC25038BF70471CF087
:102CA0007F0F4FEA400C18BFBCF17F4F38BF704711
:102CB000C3F12003994008BF20F00100BCF17F4F11
:102CC00038BF7047A0F1C04000F01DBA4FEA3C0089
:102CD000000A40EBC25028BF1CF0FF0F4FEA400C27
:102CE000E6D018BFBCF17F4F38BF7047EAE79CEAD7
:102CF000026F05D010EA5C0F08BF00F0004070477B
:102D000010B500F0BAF900BF64FBBE3E401058BFDA
:102D1000C0F14040491058BFC1F140418142EFF33A
:102D2000008070474FF47F0C1CEAD0121EBF1CEAD3
:102D3000D11392EA0C0F93EA0C0F00F0858090EA11
:102D4000010F48BF42F4807240F4000C41F40000CF
:102D50002CF07F4120F07F4000B58142A2EB0302BE
:102D60000FF2081CACEB504EC0F100009EF800E0E2
:102D70004FEA4E0E00FB0EFC38BF49004FEA2C1CF8
:102D800002F5FA020CFB0EF34FEACE1E4FEA112CAD
:102D90004FEAC1210EEB635E42EB22420EFB0CFCBC
:102DA0004FEA1C5300FB03114FEA112C4FEA01318B
:102DB0000EFB0CFC4FEADC4C00FB0C11C14228BF9F
:102DC00009184CEB03335DF804EB10EB410143EBC6
:102DD000C250B2F57C0F38BF704729D512F0F00F02
:102DE0001CBF00F1C04000F00040704700818283AA
:102DF0008485868788898B8C8D8E8F91929395960A
:102E000097999A9C9D9FA0A2A3A5A7A8AAACAEB093
:102E1000B2B3B5B7B9BCBEC0C2C5C7C9CCCED1D498
:102E2000D7D9DCDFE2E6E9ECF0F3F7FAFE000000C8
:102E30004FEA400C0CF1807CBCF17E4F28BF7047FC
:102E4000B0F1C04000F05FB990EA010F0CEAD11375
:102E500048BF42F48072624538BF634507D213F41D
:102E60007F0F16D080EA010000F00040704710B5D7
:102E700000F003F9097EFC3E00F005B880EA01008D
:102E800000F00040704780EA010000F0004000F0D0
:102E90003AB912F47F0F04BF0248704780EA01007C
:102EA00000F031B90000C07FC10DD1F19E0206DBF8
:102EB0004FEA002343F0004323FA02F07047004238
:102EC00007D54FEA4001B1F1FE4F02D24FF00000AA
:102ED000704710B500F0D1F8499224800020704767
:102EE0006FEA200070470000B0FA80F310FA03F296
:102EF000C3F19D030AD0D90501EB1220530638BF58
:102F0000704700F1010008BF20F001007047000089
:102F100050EA010C00F113801CF5000F58BFBCF5FE
:102F2000000F01D48842704707D710F5000F58BF33
:102F300011F5000F15D488427047894270471CF57F
:102F4000000F04D5BCF5000FF7D5814270474FF054
:102F5000807C1CEB400F38BF1CEB410F01D281423B
:102F6000704710B500F089F8922449004FF00050E6
:102F70004FF08051FFF7CABE4FF47F0C1CEAD0120D
:102F80001EBF1CEAD11392EA0C0F93EA0C0F00F05B
:102F9000478090EA010F48BF42F480724FF0004C26
:102FA0004CEA00204CEA012102EB0302A0FB0113D2
:102FB000A2F50002002918BF43F001035B0028BFFF
:102FC0004FEA330342EB22425FEA132C4CEBC25030
:102FD0002EBFBCEB436FB2F57C0F70474FEA036C1A
:102FE000BCF1004F08BF20F00100B2F57C0F38BFE4
:102FF00070470BD582F0FF0212F5803FC8BF7047C3
:1030000000F1C040D8BF00F00040704700F5000C50
:103010005FEA4C0C48BF7047B0F1C04000F073B895
:1030200090EA010F0CEAD11348BF42F48072624566
:1030300038BF634504D280EA010000F000407047C9
:1030400010B500F01AF800BF8900013E00F007B883
:1030500000F009B85FEA410C5FEA1C6C08D080EA16
:10306000010000F050B85FEA400C5FEA1C6CF6D13A
:103070004FF00040A0F5800070470EF1020E2EF0D8
:10308000030E5EF8044B244204D44FEA4102B2F12D
:103090007F4F11D84FEA4003B3F17F4F0CD80ED1C8
:1030A0004FEAD07CB2F17F4F0CEB4C0C0CF1020CD0
:1030B00008BF4CEBD17C04E04FF0080C01E04FEA74
:1030C000D17C0CEB4C0324FA03F404F00704B4F1B4
:1030D000040C06D20EEB840CBDE810404CF0010C41
:1030E0006047DFE80CF0070802024FF00040A0F54F
:1030F000800010BD0846420018BFD2F1807288BF20
:1031000000F0004010BDFF2141EAD050C0057047DB
:1031100051EA000C00F113801CF5000F58BFBCF5FC
:10312000000F01D48142704707D711F5000F58BF37
:1031300010F5000F15D481427047894270471CF585
:10314000000F04D5BCF5000FF7D5884270474FF04B
:10315000807C1CEB410F38BF1CEB400F01D2884232
:10316000704780EA010081EA000180EA0100FFF770
:10317000F8BE000090EA010F48BF81F000413FF522
:103180006AAD421A04D882F00042A0EB020011445A
:103190004FEAD0524FF07F4C1CEA410FA2EBD153C3
:1031A00018BF9CEA026F4AD04FF0004C4CEA002056
:1031B0004CEA012121FA03FCB0EB0C0C0FD412F005
:1031C000FE0F36D05FEA4C001DD5001240EBC25016
:1031D00038BF70471CF03F0F18BF70470BE0A2F1DB
:1031E00001025FEA1C2040EBC25038BF70471CF060
:1031F0007F0F18BF7047C3F12003994014BF401ED2
:1032000020F00100704780084FEA122308BF704782
:10321000B0FA80FCA2EB0C02CCF1280C60FA0CF0A6
:1032200093EA122F04BF00EBC25070474FEAC370FD
:103230007047130A5FEADC1008BF7047F6E79CEAA4
:10324000026F04D010EA5C0F08BF0020704710B571
:10325000FFF713FF40DFF63E81F000407047FFFFAD
:10326000FFFFFFFFFFFFFFFFFFFFFFFFFFFFFFFF6E
:10327000FFFFFFFFFFFFFFFFFFFFBEF77DEFBAD6A7
:10328000B6B5F39CB294B39CB29434A5F7BDFBDE03
:103290007DEFFFFFFFFFFFFFFFFFFFFFFFFFFFFFD0
:1032A000FFFFFFFFFFFFFFFFFFFFFFFFFFFFFFFF2E
:1032B000FFFFFFFFFFFFFFFFFFFFFFFFFFFFFFFF1E
:1032C000FFFFFFFFFFFFBEF7FBDEF39CCB5AC739C2
:1032D0000421821042104210410883184529C73941
:1032E0000C6375AD3CE7BEF7FFFFFFFFFFFFFFFF7D
:1032F000FFFFFFFFFFFFFFFFFFFFFFFFFFFFFFFFDE
:10330000FFFFFFFFFFFFFFFFFFFFFFFFFFFFFFFFCD
:10331000FFFFFFFF3CE7B2940842C318821004216C
:10332000452986318631863186314529042182102E
:103330004108C3180842F39C3CE7FFFFFFFFFFFF73
:10334000FFFFFFFFFFFFFFFFFFFFFFFFFFFFFFFF8D
:10335000FFFFFFFFFFFFFFFFFFFFFFFFFFFFFFFF7D
:10336000FFFFFBDE0C63C318C3184529C7390842A9
:1033700008420842084208420842C739C739863124
:103380008631042141088210CB5ABAD6FFFFFFFFD5
:10339000FFFFFFFFFFFFFFFFFFFFFFFFFFFFFFFF3D
:1033A000FFFFFFFFFFFFFFFFFFFFFFFFFFFFFFFF2D
:1033B000FBDECB5A82104529C73908420842094A28
:1033C000494A494A494A494A494A0842C739C739D4
:1033D000C7398631452983180000C84138C6FFFF28
:1033E000FFFFFFFFFFFFFFFFFFFFFFFFFFFFFFFFED
:1033F000FFFFFFFFFFFFFFFFFFFFFFFFFFFF7DEF6F
:103400008E7382104529C7390842094A8A5230848E
:10341000CF7B8A52494A4A52494ACB5ACF7B0C63E6
:103420000842C73986314529C3180000494ABAD62F
:10343000FFFFFFFFFFFFFFFFFFFFFFFFFFFFFFFF9C
:10344000FFFFFFFFFFFFFFFFFFFFFFFFFFFFF39CFB
:10345000C3180421C7390842494A494A72947DEF8A
:103460007DEFB2944A52494A8A5275ADBEF7BAD638
:103470004D6BC739C73986314529C3184108CF7B01
:103480007CE7FFFFFFFFFFFFFFFFFFFFFFFFFFFFE7
:10349000FFFFFFFFFFFFFFFFFFFFFFFFBAD608425E
:1034A0008210C7390842494A494A8E73FBDEFFFF42
:1034B000BEF7BAD68E73084230843CE77DEFFFFF3B
:1034C000B6B5494AC73986314529042141084529FD
:1034D000B6B5FFFFFFFFFFFFFFFFFFFFFFFFFFFF8F
:1034E000FFFFFFFFFFFFFFFFFFFFBEF7718C4108EB
:1034F00045290842494A494A4A52B294BEF7BEF7A2
:10350000B294CF7BCF7B494AB6B5F39C0C6338C6E7
:10351000BAD60C638739C73986314529C3184108A3
:1035200030847DEFFFFFFFFFFFFFFFFFFFFFFFFF87
:10353000FFFFFFFFFFFFFFFFFFFF3CE7CB5A410804
:10354000C7390842494A4A528A52F39CFFFF7DEF2D
:10355000C739C3180C63CB5AB6B5B294CB5A75AD04
:10356000FAD64D6B8739C739863145290421410880
:103570008A5279CEFFFFFFFFFFFFFFFFFFFFFFFF34
:10358000FFFFFFFFFFFFFFFFFFFF38C6863104216B
:10359000C841494A494A4A52494AB18CBEF7BEF726
:1035A000B294CF7BCF7B494A74A57DEF7CE7BEF711
:1035B00079CE0C63C739C739863145290421821079
:1035C000452975ADBEF7FFFFFFFFFFFFFFFFFFFFC0
:1035D000FFFFFFFFFFFFFFFFFFFF34A582108631D3
:1035E0000842494A494A8A52494A4D6BBAD6FFFFB6
:1035F000FFFF79CE0D63C739CF7B7DEFFFFFFFFF64
:1036000075AD08428631C739863145294529C31829
:10361000C318B2947DEFFFFFFFFFFFFFFFFFFFFF27
:10362000FFFFFFFFFFFFFFFFBEF7B28C4108C73966
:103630000842494A494A8A528A524A4AD07B7AC643
:103640007BBE906BC9398831C939B384BBC6F8B524
:10365000CC5A8631C739C739863145294529C42016
:10366000410830843CE7FFFFFFFFFFFFFFFFFFFF44
:10367000FFFFFFFFFFFFFFFF3CE78A4AC310C73988
:103680000842494A494A4A4A4A42093A084A096BA1
:10369000497BC67A05834683C57AC672097B485A38
:1036A0008731882188298631863145294529042199
:1036B00041084A4ABAD6FFFFFFFFFFFFFFFFFFFFA7
:1036C000FFFFFFFFFFFFFFFFF7C582500541C7293E
:1036D0000842494A4A42494A097B889BC6B321D4D9
:1036E000A0DCE1E461ED61ED21EDA0E420DC80CB24
:1036F00043ABC482065A47214629452904290419A7
:1037000082108218F39C7DEFFFFFFFFFFFFFFFFF9A
:10371000FFFFFFFFFFFF7DEF4D9300A082B8C73191
:103720000932494A867A43C36BEDF4F6EBFD20FD7E
:1037300020FD60FDA0FDA0FD60FD60FD20FDE0FC22
:10374000A0FC60F4C1DB839AC54945290419C42053
:1037500082380050CB6ABAD6FFFFFFFFFFFFFFFFA2
:10376000FFFFFFFFFFFFFBEE04A100C000F0C3A0BE
:10377000C8414942059B20FCA4FC69FDE8FD63FDAE
:1037800020FD60FD60FD60FD20FD20FDE0FCE0FC13
:10379000A0FC60FC20FC41D3C5494519C4388268AF
:1037A00041880070495A79CEFFFFFFFFFFFFFFFFFE
:1037B000FFFFFFFFFFFFFBF682C000D086C146F18E
:1037C00041C8457989528862866AC67AC4BBE1FCE1
:1037D00060FD60FDA0FDA0FD60FD60FDE0FC60E41B
:1037E00003938472446AC5414529C35841A840984F
:1037F00000B000600C6B79CEFFFFFFFFFFFFFFFF03
:10380000FFFFFFFF7DEFCE83828800F8C4D80CF362
:103810008AFA82E882B04569C7510842083A865A56
:10382000839BA2BC22CD21CDA1C422B4C47A063A86
:10383000862945290531C450419000C000A800A048
:1038400000A800304A4ABAD6FFFFFFFFFFFFFFFF84
:10385000FFFF7DEF8E73C318053982A800F8C3F807
:103860004DFB4DFBC7F9C3F082D8C3B0048145615D
:1038700046518649864946414541454145410549AC
:103880000461829041B000D000C800A800A800B830
:10389000415882108210B294BEF7FFFFFFFFFFFF76
:1038A000BEF7CF7B8210042186298641049940E827
:1038B00041F886F9CBFA49FA82F800F800F000E8FE
:1038C00041D841D041C041C041C041C041C800D0F1
:1038D00000E000E000D800D000B800A8418882488D
:1038E000821082100000452979CEFFFFFFFFBEF74E
:1038F000F39C8210C31845298631C731307CF3DC34
:1039000086E100F000F841F841F800F800F800F80E
:1039100000F800F800F800F800F800F800F800E8F7
:1039200000E000E000D800C841A08A9A0C630411AE
:1039300082108210410800004D6B7DEFFFFFFBDE1F
:1039400008424210452986318631494A38BEFFFF78
:1039500038D686A900C800E000F000F800F800F8AA
:1039600000F800F800F800F800F800F000F000E8B7
:1039700000E000D0C3988A8AB2A4BAC6F7B508425C
:1039800041088210410800004529F7BDFFFF718CF6
:10399000410804214529863186310C633CE7FFFF4D
:1039A00079D646B900E042C882A882B041D882E800
:1039B00082F041E841E841E841F041E841D804C1E2
:1039C00008924D8B34A5FBC6FBD6BACE3CE73084BB
:1039D000C3184108410800004108CF7B7DEF494AE8
:1039E000000004214529463186313084FFFFFFF76E
:1039F000F7DD09DA83F801F042C08298499AF3B4FE
:103A0000F3CC71BC8EBB8EBB30BC71BCF3BCB6BDFD
:103A1000FBCEBEE77DE73BDFBAD679CEFBDE75ADE8
:103A200086314108410800000000494AFBDE0421BC
:103A300041080421452945298739B294FFFFBEF783
:103A400034DD0CEB09FA00F001D800D88BD27DE709
:103A5000FFFFFFFFFFFFFFFFFFFFFFFFFFFFFFFF76
:103A6000BEFF7DEFFBDEFBDEBAD679CEBAD678C6D6
:103A7000C7390000410800000000C73979CE0000B6
:103A80008210C318042105298631B39CFFFFFFF77C
:103A900075DDC7E9C7F901F801F000E849E2FBEE7E
:103AA000FFFFFFFFFFFFFFFFFFFFFFFFFFFFFFFF26
:103AB000BEF77DEFFBDEFBDEBAD679CEBAD6B9CE45
:103AC00008420000000000000000C73938C60000AE
:103AD000821082100421042145293084FFFFFFFF5A
:103AE00038DEC4D000F001F800F800F008D2FBE6A0
:103AF000FFFFFFFFFFFFFFFFFFFFFFFFFFFFFFFFD6
:103B0000BEF77DEFFBDEBAD679CE79CEBAD679CEC6
:103B1000C7394108000000000000863138C60000A7
:103B20000000C318CB5A8631C318CB5A7DEFFFFF74
:103B30007DEFCFBBC3B041D041D082B84DB37DE75C
:103B4000FFFFFFFFFFFFFFFFFFFFFFFFFFFFBEF7CE
:103B5000BEF73DEFFBDEBAD679CE79CEFAD6F7BD09
:103B600004218631042100000000863138C68631E8
:103B7000C318CB5A75ADCF7B41088631F7BDFFFF27
:103B8000FFFFBEEF74B5309C309C72A4BBD6FFFF24
:103B9000FFFFFFFFFFFFFFFFFFFFFFFFFFFFBEF77E
:103BA0007DEF3CE7FBDEBAD679CE79CE3CE7718C6F
:103BB00081080C63CF7B821000008A5238C675AD35
:103BC000718CB6B53CE7FBDEC7390000CF73FFFF51
:103BD000FFFFFFFFFFFFFFFFFFFFFFFFFFFFFFFFF5
:103BE000FFFFFFFFFFFFFFFFFFFFFFFFBEF77DEFC0
:103BF0007DEF3BDFFAD679CE79CEFBDEB9CEC73981
:103C0000C420718CBAD6718CCB5AB294BAD6FFFF4D
:103C10007DEF7DEFFFFFFFFFB6B54629051975A5BE
:103C2000FFFFFFFFFFFFFFFFFFFFFFFFFFFFFFFFA4
:103C3000FFFFFFFFFFFFFFFFFFFFFFFFBEF77DEF6F
:103C40003CE7FBDEBAD679CEBAD6FCDE4E6342083C
:103C50000C63F7BDBEF7FFFFFBDEFBDEBEF7FFFF29
:103C6000FFFFFFFFFFFFFFFFFFFFF49C0421052183
:103C7000B6A5FFFFFFFFFFFFFFFFFFFFFFFFFFFFF7
:103C8000FFFFFFFFFFFFFFFFBEF7BEF77DEF3CE743
:103C9000FBDEBAD679CEFBDEBBD6D173831886396C
:103CA000349DBDEFFFFFFFFFFFFFFFFFFFFFFFFFA3
:103CB000FFFFFFFFFFFFBEFF35D6EBCC43B3405104
:103CC0000519F58CBEEFFFFFFFFFFFFFFFFFFFFFB2
:103CD000FFFFFFFFBEF7BEF77DEF7DEF3CE7FBDEAA
:103CE000BADEBAD63CDF3ABE4F63824940A323B462
:103CF000CC833ABEFFFFFFFFFFFFFFFFFFFFFFFF89
:103D0000FFFFFFFFBFF7B5BD829220F4A0FC60E487
:103D1000408284418F6B77AD3DE7FFFFFFFFFEFFE1
:103D2000BEF7BEF7BEF77DEF7DEF3CE7FBDEFBDEC7
:103D30003DE7BBCE369D0B6B416A60C420FE60F54B
:103D4000008BC76A38C6BEF7FFFFFFFFFFFFFFFF0C
:103D5000FFFFFFFF7DEF4B7B80B2A0FCA0FCE0FCEF
:103D6000E0FCC0CBC18A45624D6BB394F7BD3DDF2B
:103D7000FFF7FFFFBEF77DEF7DEF7DE73DDFBAC6C2
:103D800075A58D7B847A40B3E0ECE0FDE0FD60F545
:103D900020E5A0D40A6BFBDEFFFFFFFFFFFFFFFF64
:103DA000FFFFFFFF7DEFCC9340EB60FCA0FCE0FC4D
:103DB00020FD60FD20F5A0D4C0BB429B458B6B9CD1
:103DC000AE9C718CB394339D34A5F2A4F0B4CA9B1D
:103DD000049B40BB20E420FDA0FDA0FDE0FDE0FD34
:103DE000E0FD20C4885A38BEFFFFFFFFFFFFFFFF42
:103DF000FFFFFFFFFFFF78D646AB40DB20F460FCFF
:103E0000A0FCE0FC60FDA0FD60FD20F5A0DCC0B3DF
:103E1000C05186290D638F7B0D5BC741018200C3B2
:103E2000C0E360FCA0FCE0FCE0FC60F560F520E590
:103E3000809B8662308479CEFFFFFFFFFFFFFFFF8C
:103E4000FFFFFFFFFFFFFFFF38C62D9C059343A335
:103E500082B3C2BBC2BB22B482A34293C37A85623F
:103E60000B637184B6B579CE79C6B5AD70944A8BC3
:103E700006830493049B439B439B439304830873EF
:103E80008D73B39479CE7DEFFFFFFFFFFFFFFFFF40
:103E9000FFFFFFFFFFFFFFFFFFFF3CDF38BE75B5F1
:103EA00033A533A5F39CF39CF39CF394F39C35A5C5
:103EB000F8BDFBDEBEF7FFFFFFFFFFFF7EEFBBD6C7
:103EC000F8BDB6AD75AD34A5339D349D35A5B7AD00
:103ED00079C63CE7BEF7FFFFFFFFFFFFFFFF0000D3
:103EE00000000000000000000000000000000000D2
:103EF0000008080808080808000018180000004812
:103F00006C2412000000000000000000000000000F
:103F1000002424247F1212127F12121200000000CB
:103F2000081C2A2A0A0C1828282A2A1C080800001B
:103F30000022251515152A5854545422000000005B
:103F4000000C1212120A76252911916E000000064B
:103F50000604030000000000000000000000004014
:103F6000201010080808080808101020400000025F
:103F700004080810101010101008080402000000B7
:103F8000000008086B1C1C6B080800000000000003
:103F90000000080808087F08080808000000000062
:103FA00000000000000000000000060604030000FE
:103FB000000000000000FE00000000000000000003
:103FC00000000000000000000000060600000000E5
:103FD0008040402020101008080404020200000065
:103FE000001824424242424242422418000000008B
:103FF00000080E08080808080808083E000000002D
:10400000003C4242422020100804427E0000000092
:10401000003C4242201820404042221C0000000088
:1040200000203028242422227E2020780000000056
:10403000007E0202021A26404042221C00000000BC
:1040400000382402021A26424242241800000000CE
:10405000007E22221010080808080808000000004E
:10406000003C4242422418244242423C00000000EC
:1040700000182442424264584040241C00000000C2
:1040800000000000181800000000181800000000D0
:104090000000000000080000000000080804000004
:1040A0000040201008040204081020400000000016
:1040B000000000007F0000007F0000000000000002
:1040C0000002040810204020100804020000000034
:1040D000003C42424640201010001818000000002A
:1040E000001C225A555555552D42221C0000000037
:1040F000000808181414243C224242E70000000083
:10410000001F2222221E22424242221F00000000E3
:10411000007C4242010101010142221C000000001A
:10412000001F2242424242424242221F000000003F
:10413000003F4212121E12120242423F00000000D3
:10414000003F4212121E121202020207000000007B
:10415000003C2222010101712122221C00000000EA
:1041600000E7424242427E42424242E700000000F3
:10417000003E0808080808080808083E000000007B
:10418000007C10101010101010101010110F0000F3
:10419000007722120A0E0A12122222770000000073
:1041A00000070202020202020202427F0000000037
:1041B0000077363636362A2A2A2A2A6B0000000073
:1041C00000E346464A4A52525262624700000000EB
:1041D000001C2241414141414141221C000000009C
:1041E000003F424242423E0202020207000000003B
:1041F000001C2241414141414D53321C60000000EE
:10420000003F4242423E1212222242C700000000FA
:10421000007C4242020418204042423E000000005E
:10422000007F4908080808080808081C000000006A
:1042300000E74242424242424242423C0000000009
:1042400000E7424222242414141808080000000049
:10425000006B494949495555362222220000000089
:1042600000E7422424181818242442E70000000024
:1042700000772222141408080808081C0000000017
:10428000007E2120101008040442423F0000007804
:104290000808080808080808080808087800000046
:1042A0000202040408080810102020204040001ECC
:1042B0001010101010101010101010101E000038E8
:1042C00044000000000000000000000000000000AA
:1042D00000000000000000000000000000FF0006D9
:1042E00008000000000000000000000000000000C6
:1042F00000000000003C4278444242FC0000000004
:1043000000030202021A26424242261A000000005E
:10431000000000000038440202024438000000009F
:104320000060404040784442424264D800000000AF
:1043300000000000003C427E0202423C00000000FF
:1043400000F08808087E08080808083E0000000001
:1043500000000000007C22221C023C42423C000083
:1043600000030202023A4642424242E700000000D5
:10437000000C0C00000E08080808083E00000000B1
:10438000003030000038202020202020221E000095
:10439000000302020272120A1612227700000000C5
:1043A000000E0808080808080808083E0000000079
:1043B00000000000007F9292929292B700000000ED
:1043C00000000000003B4642424242E7000000007D
:1043D00000000000003C42424242423C000000001B
:1043E00000000000001B26424242221E020700007D
:1043F00000000000007844424242447840E000005F
:104400000000000000774C040404041F00000000BA
:1044100000000000007C42023C40423E00000000E0
:1044200000000008083E08080808083000000000E6
:104430000000000000634242424262DC00000000D3
:104440000000000000E742242414080800000000D7
:104450000000000000EB49495555222200000000F1
:1044600000000000007624181818246E00000000D8
:104470000000000000E74224241418080807000088
:1044800000000000007E22100808447E000000C0EA
:10449000202020202010202020202020C0001010CC
:1044A0001010101010101010101010101010000626
:1044B00008080808081008080808080806000C3250
:1044C000C20000000000000000000000000000002A
:1044D000F044000800000020200300006C010008E8
:1044E000784600082003002028070000C8010008C3
:1044F0005184A24A04200B0102030406070809B6EE
:104500003C239D2B328C021D9222803CFEFF010435
:104510002306C069048BFEFF0CE910220228093033
:10452000300C1CF07FFC3F08A9040D12F03FFC1F6B
:10453000147918C410040C12C018090808C0F1FF3F
:104540001FC0F0041027484C1CC4DCCC1DCCDC8DF3
:104550001DDC8E8D1DD8060E1FF8C3EF1DF8F1EC83
:104560001CD0601D1CC01C770CFE9FE7100C348310
:10457000E30C30C3FF1F30C3613B30E3041808066F
:1045800030F3FF0F30DB0C100FFB610438DB610EE2
:1045900018CFFF0F18C7611A9804100C0CC36138AC
:1045A00004C2FF3F06C0011A0204611BF010012A79
:1045B000FF050215F01B0F04012AFF0502130F1857
:1045C000094040405F55555575041A5F0C0911218B
:1045D000080C11200F094989790909090F201F11B9
:1045E0002FFE02424ACA4A0304134202FE000E147E
:1045F000FF40504C4340404F50505C40FF1BF888F8
:10460000012AFF050215F81B1F08012A7F200B1045
:104610009F80E23B808201000916E2A2928A868294
:104620008080041840807F172424A4FEA3221B222C
:10463000CCAA011415080601FF2B0104010511FF86
:104640000202025808101010FF109008C30211084F
:10465000080F150444827F01808040432C102846B7
:1046600081A001132D0102030404000900060708BC
:08467000090204060800000025
:0400000508000131BD
:00000001FF
